{
  "contracts/YouDefi.sol": {
    "YouDefi": {
      "abi": [
        {
          "inputs": [
            {
              "internalType": "uint256",
              "name": "",
              "type": "uint256"
            }
          ],
          "name": "Loans",
          "outputs": [
            {
              "internalType": "address",
              "name": "tokenAddress",
              "type": "address"
            },
            {
              "internalType": "address",
              "name": "lender",
              "type": "address"
            },
            {
              "internalType": "address",
              "name": "borrower",
              "type": "address"
            },
            {
              "internalType": "uint256",
              "name": "loanAmount",
              "type": "uint256"
            },
            {
              "internalType": "uint256",
              "name": "feeAmount",
              "type": "uint256"
            },
            {
              "internalType": "uint256",
              "name": "ethCollateralAmount",
              "type": "uint256"
            },
            {
              "internalType": "uint256",
              "name": "repayByTimestamp",
              "type": "uint256"
            },
            {
              "internalType": "string",
              "name": "status",
              "type": "string"
            }
          ],
          "stateMutability": "view",
          "type": "function"
        },
        {
          "inputs": [],
          "name": "getTimestamp",
          "outputs": [
            {
              "internalType": "uint256",
              "name": "",
              "type": "uint256"
            }
          ],
          "stateMutability": "view",
          "type": "function"
        },
        {
          "inputs": [
            {
              "internalType": "address",
              "name": "_tokenAddress",
              "type": "address"
            },
            {
              "internalType": "uint256",
              "name": "_loanAmt",
              "type": "uint256"
            },
            {
              "internalType": "uint256",
              "name": "_fee",
              "type": "uint256"
            },
            {
              "internalType": "uint256",
              "name": "_collateral",
              "type": "uint256"
            },
            {
              "internalType": "uint256",
              "name": "_timestamp",
              "type": "uint256"
            }
          ],
          "name": "initiateLoan",
          "outputs": [],
          "stateMutability": "nonpayable",
          "type": "function"
        },
        {
          "inputs": [
            {
              "internalType": "uint256",
              "name": "_LoanID",
              "type": "uint256"
            }
          ],
          "name": "liquidate",
          "outputs": [],
          "stateMutability": "nonpayable",
          "type": "function"
        },
        {
          "inputs": [],
          "name": "numOfLoans",
          "outputs": [
            {
              "internalType": "uint256",
              "name": "",
              "type": "uint256"
            }
          ],
          "stateMutability": "view",
          "type": "function"
        },
        {
          "inputs": [
            {
              "internalType": "uint256",
              "name": "_LoanID",
              "type": "uint256"
            }
          ],
          "name": "repay",
          "outputs": [],
          "stateMutability": "nonpayable",
          "type": "function"
        },
        {
          "inputs": [
            {
              "internalType": "uint256",
              "name": "_LoanID",
              "type": "uint256"
            }
          ],
          "name": "takeLoan",
          "outputs": [],
          "stateMutability": "payable",
          "type": "function"
        }
      ],
      "evm": {
        "bytecode": {
          "linkReferences": {},
          "object": "60806040526000805534801561001457600080fd5b5061132f806100246000396000f3fe6080604052600436106100705760003560e01c806343362da31161004e57806343362da3146100f257806356bebc7e1461011d57806389b279e7146101465780638c803fc21461018a57610070565b8063188ec35614610075578063371fd8e6146100a0578063415f1240146100c9575b600080fd5b34801561008157600080fd5b5061008a6101a6565b6040516100979190610fac565b60405180910390f35b3480156100ac57600080fd5b506100c760048036038101906100c29190610d3b565b6101ae565b005b3480156100d557600080fd5b506100f060048036038101906100eb9190610d3b565b61047b565b005b3480156100fe57600080fd5b50610107610638565b6040516101149190610fac565b60405180910390f35b34801561012957600080fd5b50610144600480360381019061013f9190610c9b565b61063e565b005b34801561015257600080fd5b5061016d60048036038101906101689190610d3b565b610869565b604051610181989796959493929190610e47565b60405180910390f35b6101a4600480360381019061019f9190610d3b565b610999565b005b600042905090565b6001600082815260200190815260200160002060020160009054906101000a900473ffffffffffffffffffffffffffffffffffffffff1673ffffffffffffffffffffffffffffffffffffffff163373ffffffffffffffffffffffffffffffffffffffff1614610252576040517f08c379a000000000000000000000000000000000000000000000000000000000815260040161024990610f2c565b60405180910390fd5b6001600082815260200190815260200160002060000160009054906101000a900473ffffffffffffffffffffffffffffffffffffffff1673ffffffffffffffffffffffffffffffffffffffff166323b872dd6001600084815260200190815260200160002060020160009054906101000a900473ffffffffffffffffffffffffffffffffffffffff166001600085815260200190815260200160002060010160009054906101000a900473ffffffffffffffffffffffffffffffffffffffff166001600086815260200190815260200160002060040154600160008781526020019081526020016000206003015461034a9190610fe3565b6040518463ffffffff1660e01b815260040161036893929190610ecc565b602060405180830381600087803b15801561038257600080fd5b505af1158015610396573d6000803e3d6000fd5b505050506040513d601f19601f820116820180604052508101906103ba9190610d12565b503373ffffffffffffffffffffffffffffffffffffffff166108fc60016000848152602001908152602001600020600501549081150290604051600060405180830381858888f19350505050158015610417573d6000803e3d6000fd5b506040518060400160405280600b81526020017f4c6f616e20526570616964000000000000000000000000000000000000000000815250600160008381526020019081526020016000206007019080519060200190610477929190610bb9565b5050565b6001600082815260200190815260200160002060010160009054906101000a900473ffffffffffffffffffffffffffffffffffffffff1673ffffffffffffffffffffffffffffffffffffffff163373ffffffffffffffffffffffffffffffffffffffff161461051f576040517f08c379a000000000000000000000000000000000000000000000000000000000815260040161051690610f6c565b60405180910390fd5b6001600082815260200190815260200160002060060154421015610578576040517f08c379a000000000000000000000000000000000000000000000000000000000815260040161056f90610f8c565b60405180910390fd5b3373ffffffffffffffffffffffffffffffffffffffff166108fc60016000848152602001908152602001600020600501549081150290604051600060405180830381858888f193505050501580156105d4573d6000803e3d6000fd5b506040518060400160405280600e81526020017f4c6f616e2044656661756c746564000000000000000000000000000000000000815250600160008381526020019081526020016000206007019080519060200190610634929190610bb9565b5050565b60005481565b600080815480929190610650906110e6565b919050555033600160008054815260200190815260200160002060010160006101000a81548173ffffffffffffffffffffffffffffffffffffffff021916908373ffffffffffffffffffffffffffffffffffffffff1602179055508360016000805481526020019081526020016000206003018190555082600160008054815260200190815260200160002060040181905550816001600080548152602001908152602001600020600501819055508060016000805481526020019081526020016000206006018190555084600160008054815260200190815260200160002060000160006101000a81548173ffffffffffffffffffffffffffffffffffffffff021916908373ffffffffffffffffffffffffffffffffffffffff1602179055506040518060400160405280600c81526020017f4c6f616e20437265617465640000000000000000000000000000000000000000815250600160008054815260200190815260200160002060070190805190602001906107d1929190610bb9565b508473ffffffffffffffffffffffffffffffffffffffff166323b872dd3330876040518463ffffffff1660e01b815260040161080f93929190610ecc565b602060405180830381600087803b15801561082957600080fd5b505af115801561083d573d6000803e3d6000fd5b505050506040513d601f19601f820116820180604052508101906108619190610d12565b505050505050565b60016020528060005260406000206000915090508060000160009054906101000a900473ffffffffffffffffffffffffffffffffffffffff16908060010160009054906101000a900473ffffffffffffffffffffffffffffffffffffffff16908060020160009054906101000a900473ffffffffffffffffffffffffffffffffffffffff1690806003015490806004015490806005015490806006015490806007018054610916906110b4565b80601f0160208091040260200160405190810160405280929190818152602001828054610942906110b4565b801561098f5780601f106109645761010080835404028352916020019161098f565b820191906000526020600020905b81548152906001019060200180831161097257829003601f168201915b5050505050905088565b600160008281526020019081526020016000206005015434146109f1576040517f08c379a00000000000000000000000000000000000000000000000000000000081526004016109e890610f4c565b60405180910390fd5b336001600083815260200190815260200160002060020160006101000a81548173ffffffffffffffffffffffffffffffffffffffff021916908373ffffffffffffffffffffffffffffffffffffffff1602179055506001600082815260200190815260200160002060000160009054906101000a900473ffffffffffffffffffffffffffffffffffffffff1673ffffffffffffffffffffffffffffffffffffffff1663a9059cbb6001600084815260200190815260200160002060020160009054906101000a900473ffffffffffffffffffffffffffffffffffffffff1660016000858152602001908152602001600020600301546040518363ffffffff1660e01b8152600401610b03929190610f03565b602060405180830381600087803b158015610b1d57600080fd5b505af1158015610b31573d6000803e3d6000fd5b505050506040513d601f19601f82011682018060405250810190610b559190610d12565b506040518060400160405280600d81526020017f4c6f616e20426f72726f77656400000000000000000000000000000000000000815250600160008381526020019081526020016000206007019080519060200190610bb5929190610bb9565b5050565b828054610bc5906110b4565b90600052602060002090601f016020900481019282610be75760008555610c2e565b82601f10610c0057805160ff1916838001178555610c2e565b82800160010185558215610c2e579182015b82811115610c2d578251825591602001919060010190610c12565b5b509050610c3b9190610c3f565b5090565b5b80821115610c58576000816000905550600101610c40565b5090565b600081359050610c6b816112b4565b92915050565b600081519050610c80816112cb565b92915050565b600081359050610c95816112e2565b92915050565b600080600080600060a08688031215610cb357600080fd5b6000610cc188828901610c5c565b9550506020610cd288828901610c86565b9450506040610ce388828901610c86565b9350506060610cf488828901610c86565b9250506080610d0588828901610c86565b9150509295509295909350565b600060208284031215610d2457600080fd5b6000610d3284828501610c71565b91505092915050565b600060208284031215610d4d57600080fd5b6000610d5b84828501610c86565b91505092915050565b610d6d81611039565b82525050565b6000610d7e82610fc7565b610d888185610fd2565b9350610d98818560208601611081565b610da18161118d565b840191505092915050565b6000610db9602483610fd2565b9150610dc48261119e565b604082019050919050565b6000610ddc601983610fd2565b9150610de7826111ed565b602082019050919050565b6000610dff602683610fd2565b9150610e0a82611216565b604082019050919050565b6000610e22602883610fd2565b9150610e2d82611265565b604082019050919050565b610e4181611077565b82525050565b600061010082019050610e5d600083018b610d64565b610e6a602083018a610d64565b610e776040830189610d64565b610e846060830188610e38565b610e916080830187610e38565b610e9e60a0830186610e38565b610eab60c0830185610e38565b81810360e0830152610ebd8184610d73565b90509998505050505050505050565b6000606082019050610ee16000830186610d64565b610eee6020830185610d64565b610efb6040830184610e38565b949350505050565b6000604082019050610f186000830185610d64565b610f256020830184610e38565b9392505050565b60006020820190508181036000830152610f4581610dac565b9050919050565b60006020820190508181036000830152610f6581610dcf565b9050919050565b60006020820190508181036000830152610f8581610df2565b9050919050565b60006020820190508181036000830152610fa581610e15565b9050919050565b6000602082019050610fc16000830184610e38565b92915050565b600081519050919050565b600082825260208201905092915050565b6000610fee82611077565b9150610ff983611077565b9250827fffffffffffffffffffffffffffffffffffffffffffffffffffffffffffffffff0382111561102e5761102d61112f565b5b828201905092915050565b600061104482611057565b9050919050565b60008115159050919050565b600073ffffffffffffffffffffffffffffffffffffffff82169050919050565b6000819050919050565b60005b8381101561109f578082015181840152602081019050611084565b838111156110ae576000848401525b50505050565b600060028204905060018216806110cc57607f821691505b602082108114156110e0576110df61115e565b5b50919050565b60006110f182611077565b91507fffffffffffffffffffffffffffffffffffffffffffffffffffffffffffffffff8214156111245761112361112f565b5b600182019050919050565b7f4e487b7100000000000000000000000000000000000000000000000000000000600052601160045260246000fd5b7f4e487b7100000000000000000000000000000000000000000000000000000000600052602260045260246000fd5b6000601f19601f8301169050919050565b7f4f6e6c792074686520626f72726f7765722063616e207265706179207468652060008201527f6c6f616e00000000000000000000000000000000000000000000000000000000602082015250565b7f496e76616c696420436f6c6c61746572616c20416d6f756e7400000000000000600082015250565b7f4f6e6c7920746865206c656e6465722063616e206c697175696461746520746860008201527f65206c6f616e0000000000000000000000000000000000000000000000000000602082015250565b7f43616e206e6f74206c6971756964617465206265666f726520746865206c6f6160008201527f6e20697320647565000000000000000000000000000000000000000000000000602082015250565b6112bd81611039565b81146112c857600080fd5b50565b6112d48161104b565b81146112df57600080fd5b50565b6112eb81611077565b81146112f657600080fd5b5056fea26469706673582212200c32007453bc94d238d4661cb1fad584c9a60baee93e0aa1dc88a868b1a3e7bc64736f6c63430008030033",
          "opcodes": "PUSH1 0x80 PUSH1 0x40 MSTORE PUSH1 0x0 DUP1 SSTORE CALLVALUE DUP1 ISZERO PUSH2 0x14 JUMPI PUSH1 0x0 DUP1 REVERT JUMPDEST POP PUSH2 0x132F DUP1 PUSH2 0x24 PUSH1 0x0 CODECOPY PUSH1 0x0 RETURN INVALID PUSH1 0x80 PUSH1 0x40 MSTORE PUSH1 0x4 CALLDATASIZE LT PUSH2 0x70 JUMPI PUSH1 0x0 CALLDATALOAD PUSH1 0xE0 SHR DUP1 PUSH4 0x43362DA3 GT PUSH2 0x4E JUMPI DUP1 PUSH4 0x43362DA3 EQ PUSH2 0xF2 JUMPI DUP1 PUSH4 0x56BEBC7E EQ PUSH2 0x11D JUMPI DUP1 PUSH4 0x89B279E7 EQ PUSH2 0x146 JUMPI DUP1 PUSH4 0x8C803FC2 EQ PUSH2 0x18A JUMPI PUSH2 0x70 JUMP JUMPDEST DUP1 PUSH4 0x188EC356 EQ PUSH2 0x75 JUMPI DUP1 PUSH4 0x371FD8E6 EQ PUSH2 0xA0 JUMPI DUP1 PUSH4 0x415F1240 EQ PUSH2 0xC9 JUMPI JUMPDEST PUSH1 0x0 DUP1 REVERT JUMPDEST CALLVALUE DUP1 ISZERO PUSH2 0x81 JUMPI PUSH1 0x0 DUP1 REVERT JUMPDEST POP PUSH2 0x8A PUSH2 0x1A6 JUMP JUMPDEST PUSH1 0x40 MLOAD PUSH2 0x97 SWAP2 SWAP1 PUSH2 0xFAC JUMP JUMPDEST PUSH1 0x40 MLOAD DUP1 SWAP2 SUB SWAP1 RETURN JUMPDEST CALLVALUE DUP1 ISZERO PUSH2 0xAC JUMPI PUSH1 0x0 DUP1 REVERT JUMPDEST POP PUSH2 0xC7 PUSH1 0x4 DUP1 CALLDATASIZE SUB DUP2 ADD SWAP1 PUSH2 0xC2 SWAP2 SWAP1 PUSH2 0xD3B JUMP JUMPDEST PUSH2 0x1AE JUMP JUMPDEST STOP JUMPDEST CALLVALUE DUP1 ISZERO PUSH2 0xD5 JUMPI PUSH1 0x0 DUP1 REVERT JUMPDEST POP PUSH2 0xF0 PUSH1 0x4 DUP1 CALLDATASIZE SUB DUP2 ADD SWAP1 PUSH2 0xEB SWAP2 SWAP1 PUSH2 0xD3B JUMP JUMPDEST PUSH2 0x47B JUMP JUMPDEST STOP JUMPDEST CALLVALUE DUP1 ISZERO PUSH2 0xFE JUMPI PUSH1 0x0 DUP1 REVERT JUMPDEST POP PUSH2 0x107 PUSH2 0x638 JUMP JUMPDEST PUSH1 0x40 MLOAD PUSH2 0x114 SWAP2 SWAP1 PUSH2 0xFAC JUMP JUMPDEST PUSH1 0x40 MLOAD DUP1 SWAP2 SUB SWAP1 RETURN JUMPDEST CALLVALUE DUP1 ISZERO PUSH2 0x129 JUMPI PUSH1 0x0 DUP1 REVERT JUMPDEST POP PUSH2 0x144 PUSH1 0x4 DUP1 CALLDATASIZE SUB DUP2 ADD SWAP1 PUSH2 0x13F SWAP2 SWAP1 PUSH2 0xC9B JUMP JUMPDEST PUSH2 0x63E JUMP JUMPDEST STOP JUMPDEST CALLVALUE DUP1 ISZERO PUSH2 0x152 JUMPI PUSH1 0x0 DUP1 REVERT JUMPDEST POP PUSH2 0x16D PUSH1 0x4 DUP1 CALLDATASIZE SUB DUP2 ADD SWAP1 PUSH2 0x168 SWAP2 SWAP1 PUSH2 0xD3B JUMP JUMPDEST PUSH2 0x869 JUMP JUMPDEST PUSH1 0x40 MLOAD PUSH2 0x181 SWAP9 SWAP8 SWAP7 SWAP6 SWAP5 SWAP4 SWAP3 SWAP2 SWAP1 PUSH2 0xE47 JUMP JUMPDEST PUSH1 0x40 MLOAD DUP1 SWAP2 SUB SWAP1 RETURN JUMPDEST PUSH2 0x1A4 PUSH1 0x4 DUP1 CALLDATASIZE SUB DUP2 ADD SWAP1 PUSH2 0x19F SWAP2 SWAP1 PUSH2 0xD3B JUMP JUMPDEST PUSH2 0x999 JUMP JUMPDEST STOP JUMPDEST PUSH1 0x0 TIMESTAMP SWAP1 POP SWAP1 JUMP JUMPDEST PUSH1 0x1 PUSH1 0x0 DUP3 DUP2 MSTORE PUSH1 0x20 ADD SWAP1 DUP2 MSTORE PUSH1 0x20 ADD PUSH1 0x0 KECCAK256 PUSH1 0x2 ADD PUSH1 0x0 SWAP1 SLOAD SWAP1 PUSH2 0x100 EXP SWAP1 DIV PUSH20 0xFFFFFFFFFFFFFFFFFFFFFFFFFFFFFFFFFFFFFFFF AND PUSH20 0xFFFFFFFFFFFFFFFFFFFFFFFFFFFFFFFFFFFFFFFF AND CALLER PUSH20 0xFFFFFFFFFFFFFFFFFFFFFFFFFFFFFFFFFFFFFFFF AND EQ PUSH2 0x252 JUMPI PUSH1 0x40 MLOAD PUSH32 0x8C379A000000000000000000000000000000000000000000000000000000000 DUP2 MSTORE PUSH1 0x4 ADD PUSH2 0x249 SWAP1 PUSH2 0xF2C JUMP JUMPDEST PUSH1 0x40 MLOAD DUP1 SWAP2 SUB SWAP1 REVERT JUMPDEST PUSH1 0x1 PUSH1 0x0 DUP3 DUP2 MSTORE PUSH1 0x20 ADD SWAP1 DUP2 MSTORE PUSH1 0x20 ADD PUSH1 0x0 KECCAK256 PUSH1 0x0 ADD PUSH1 0x0 SWAP1 SLOAD SWAP1 PUSH2 0x100 EXP SWAP1 DIV PUSH20 0xFFFFFFFFFFFFFFFFFFFFFFFFFFFFFFFFFFFFFFFF AND PUSH20 0xFFFFFFFFFFFFFFFFFFFFFFFFFFFFFFFFFFFFFFFF AND PUSH4 0x23B872DD PUSH1 0x1 PUSH1 0x0 DUP5 DUP2 MSTORE PUSH1 0x20 ADD SWAP1 DUP2 MSTORE PUSH1 0x20 ADD PUSH1 0x0 KECCAK256 PUSH1 0x2 ADD PUSH1 0x0 SWAP1 SLOAD SWAP1 PUSH2 0x100 EXP SWAP1 DIV PUSH20 0xFFFFFFFFFFFFFFFFFFFFFFFFFFFFFFFFFFFFFFFF AND PUSH1 0x1 PUSH1 0x0 DUP6 DUP2 MSTORE PUSH1 0x20 ADD SWAP1 DUP2 MSTORE PUSH1 0x20 ADD PUSH1 0x0 KECCAK256 PUSH1 0x1 ADD PUSH1 0x0 SWAP1 SLOAD SWAP1 PUSH2 0x100 EXP SWAP1 DIV PUSH20 0xFFFFFFFFFFFFFFFFFFFFFFFFFFFFFFFFFFFFFFFF AND PUSH1 0x1 PUSH1 0x0 DUP7 DUP2 MSTORE PUSH1 0x20 ADD SWAP1 DUP2 MSTORE PUSH1 0x20 ADD PUSH1 0x0 KECCAK256 PUSH1 0x4 ADD SLOAD PUSH1 0x1 PUSH1 0x0 DUP8 DUP2 MSTORE PUSH1 0x20 ADD SWAP1 DUP2 MSTORE PUSH1 0x20 ADD PUSH1 0x0 KECCAK256 PUSH1 0x3 ADD SLOAD PUSH2 0x34A SWAP2 SWAP1 PUSH2 0xFE3 JUMP JUMPDEST PUSH1 0x40 MLOAD DUP5 PUSH4 0xFFFFFFFF AND PUSH1 0xE0 SHL DUP2 MSTORE PUSH1 0x4 ADD PUSH2 0x368 SWAP4 SWAP3 SWAP2 SWAP1 PUSH2 0xECC JUMP JUMPDEST PUSH1 0x20 PUSH1 0x40 MLOAD DUP1 DUP4 SUB DUP2 PUSH1 0x0 DUP8 DUP1 EXTCODESIZE ISZERO DUP1 ISZERO PUSH2 0x382 JUMPI PUSH1 0x0 DUP1 REVERT JUMPDEST POP GAS CALL ISZERO DUP1 ISZERO PUSH2 0x396 JUMPI RETURNDATASIZE PUSH1 0x0 DUP1 RETURNDATACOPY RETURNDATASIZE PUSH1 0x0 REVERT JUMPDEST POP POP POP POP PUSH1 0x40 MLOAD RETURNDATASIZE PUSH1 0x1F NOT PUSH1 0x1F DUP3 ADD AND DUP3 ADD DUP1 PUSH1 0x40 MSTORE POP DUP2 ADD SWAP1 PUSH2 0x3BA SWAP2 SWAP1 PUSH2 0xD12 JUMP JUMPDEST POP CALLER PUSH20 0xFFFFFFFFFFFFFFFFFFFFFFFFFFFFFFFFFFFFFFFF AND PUSH2 0x8FC PUSH1 0x1 PUSH1 0x0 DUP5 DUP2 MSTORE PUSH1 0x20 ADD SWAP1 DUP2 MSTORE PUSH1 0x20 ADD PUSH1 0x0 KECCAK256 PUSH1 0x5 ADD SLOAD SWAP1 DUP2 ISZERO MUL SWAP1 PUSH1 0x40 MLOAD PUSH1 0x0 PUSH1 0x40 MLOAD DUP1 DUP4 SUB DUP2 DUP6 DUP9 DUP9 CALL SWAP4 POP POP POP POP ISZERO DUP1 ISZERO PUSH2 0x417 JUMPI RETURNDATASIZE PUSH1 0x0 DUP1 RETURNDATACOPY RETURNDATASIZE PUSH1 0x0 REVERT JUMPDEST POP PUSH1 0x40 MLOAD DUP1 PUSH1 0x40 ADD PUSH1 0x40 MSTORE DUP1 PUSH1 0xB DUP2 MSTORE PUSH1 0x20 ADD PUSH32 0x4C6F616E20526570616964000000000000000000000000000000000000000000 DUP2 MSTORE POP PUSH1 0x1 PUSH1 0x0 DUP4 DUP2 MSTORE PUSH1 0x20 ADD SWAP1 DUP2 MSTORE PUSH1 0x20 ADD PUSH1 0x0 KECCAK256 PUSH1 0x7 ADD SWAP1 DUP1 MLOAD SWAP1 PUSH1 0x20 ADD SWAP1 PUSH2 0x477 SWAP3 SWAP2 SWAP1 PUSH2 0xBB9 JUMP JUMPDEST POP POP JUMP JUMPDEST PUSH1 0x1 PUSH1 0x0 DUP3 DUP2 MSTORE PUSH1 0x20 ADD SWAP1 DUP2 MSTORE PUSH1 0x20 ADD PUSH1 0x0 KECCAK256 PUSH1 0x1 ADD PUSH1 0x0 SWAP1 SLOAD SWAP1 PUSH2 0x100 EXP SWAP1 DIV PUSH20 0xFFFFFFFFFFFFFFFFFFFFFFFFFFFFFFFFFFFFFFFF AND PUSH20 0xFFFFFFFFFFFFFFFFFFFFFFFFFFFFFFFFFFFFFFFF AND CALLER PUSH20 0xFFFFFFFFFFFFFFFFFFFFFFFFFFFFFFFFFFFFFFFF AND EQ PUSH2 0x51F JUMPI PUSH1 0x40 MLOAD PUSH32 0x8C379A000000000000000000000000000000000000000000000000000000000 DUP2 MSTORE PUSH1 0x4 ADD PUSH2 0x516 SWAP1 PUSH2 0xF6C JUMP JUMPDEST PUSH1 0x40 MLOAD DUP1 SWAP2 SUB SWAP1 REVERT JUMPDEST PUSH1 0x1 PUSH1 0x0 DUP3 DUP2 MSTORE PUSH1 0x20 ADD SWAP1 DUP2 MSTORE PUSH1 0x20 ADD PUSH1 0x0 KECCAK256 PUSH1 0x6 ADD SLOAD TIMESTAMP LT ISZERO PUSH2 0x578 JUMPI PUSH1 0x40 MLOAD PUSH32 0x8C379A000000000000000000000000000000000000000000000000000000000 DUP2 MSTORE PUSH1 0x4 ADD PUSH2 0x56F SWAP1 PUSH2 0xF8C JUMP JUMPDEST PUSH1 0x40 MLOAD DUP1 SWAP2 SUB SWAP1 REVERT JUMPDEST CALLER PUSH20 0xFFFFFFFFFFFFFFFFFFFFFFFFFFFFFFFFFFFFFFFF AND PUSH2 0x8FC PUSH1 0x1 PUSH1 0x0 DUP5 DUP2 MSTORE PUSH1 0x20 ADD SWAP1 DUP2 MSTORE PUSH1 0x20 ADD PUSH1 0x0 KECCAK256 PUSH1 0x5 ADD SLOAD SWAP1 DUP2 ISZERO MUL SWAP1 PUSH1 0x40 MLOAD PUSH1 0x0 PUSH1 0x40 MLOAD DUP1 DUP4 SUB DUP2 DUP6 DUP9 DUP9 CALL SWAP4 POP POP POP POP ISZERO DUP1 ISZERO PUSH2 0x5D4 JUMPI RETURNDATASIZE PUSH1 0x0 DUP1 RETURNDATACOPY RETURNDATASIZE PUSH1 0x0 REVERT JUMPDEST POP PUSH1 0x40 MLOAD DUP1 PUSH1 0x40 ADD PUSH1 0x40 MSTORE DUP1 PUSH1 0xE DUP2 MSTORE PUSH1 0x20 ADD PUSH32 0x4C6F616E2044656661756C746564000000000000000000000000000000000000 DUP2 MSTORE POP PUSH1 0x1 PUSH1 0x0 DUP4 DUP2 MSTORE PUSH1 0x20 ADD SWAP1 DUP2 MSTORE PUSH1 0x20 ADD PUSH1 0x0 KECCAK256 PUSH1 0x7 ADD SWAP1 DUP1 MLOAD SWAP1 PUSH1 0x20 ADD SWAP1 PUSH2 0x634 SWAP3 SWAP2 SWAP1 PUSH2 0xBB9 JUMP JUMPDEST POP POP JUMP JUMPDEST PUSH1 0x0 SLOAD DUP2 JUMP JUMPDEST PUSH1 0x0 DUP1 DUP2 SLOAD DUP1 SWAP3 SWAP2 SWAP1 PUSH2 0x650 SWAP1 PUSH2 0x10E6 JUMP JUMPDEST SWAP2 SWAP1 POP SSTORE POP CALLER PUSH1 0x1 PUSH1 0x0 DUP1 SLOAD DUP2 MSTORE PUSH1 0x20 ADD SWAP1 DUP2 MSTORE PUSH1 0x20 ADD PUSH1 0x0 KECCAK256 PUSH1 0x1 ADD PUSH1 0x0 PUSH2 0x100 EXP DUP2 SLOAD DUP2 PUSH20 0xFFFFFFFFFFFFFFFFFFFFFFFFFFFFFFFFFFFFFFFF MUL NOT AND SWAP1 DUP4 PUSH20 0xFFFFFFFFFFFFFFFFFFFFFFFFFFFFFFFFFFFFFFFF AND MUL OR SWAP1 SSTORE POP DUP4 PUSH1 0x1 PUSH1 0x0 DUP1 SLOAD DUP2 MSTORE PUSH1 0x20 ADD SWAP1 DUP2 MSTORE PUSH1 0x20 ADD PUSH1 0x0 KECCAK256 PUSH1 0x3 ADD DUP2 SWAP1 SSTORE POP DUP3 PUSH1 0x1 PUSH1 0x0 DUP1 SLOAD DUP2 MSTORE PUSH1 0x20 ADD SWAP1 DUP2 MSTORE PUSH1 0x20 ADD PUSH1 0x0 KECCAK256 PUSH1 0x4 ADD DUP2 SWAP1 SSTORE POP DUP2 PUSH1 0x1 PUSH1 0x0 DUP1 SLOAD DUP2 MSTORE PUSH1 0x20 ADD SWAP1 DUP2 MSTORE PUSH1 0x20 ADD PUSH1 0x0 KECCAK256 PUSH1 0x5 ADD DUP2 SWAP1 SSTORE POP DUP1 PUSH1 0x1 PUSH1 0x0 DUP1 SLOAD DUP2 MSTORE PUSH1 0x20 ADD SWAP1 DUP2 MSTORE PUSH1 0x20 ADD PUSH1 0x0 KECCAK256 PUSH1 0x6 ADD DUP2 SWAP1 SSTORE POP DUP5 PUSH1 0x1 PUSH1 0x0 DUP1 SLOAD DUP2 MSTORE PUSH1 0x20 ADD SWAP1 DUP2 MSTORE PUSH1 0x20 ADD PUSH1 0x0 KECCAK256 PUSH1 0x0 ADD PUSH1 0x0 PUSH2 0x100 EXP DUP2 SLOAD DUP2 PUSH20 0xFFFFFFFFFFFFFFFFFFFFFFFFFFFFFFFFFFFFFFFF MUL NOT AND SWAP1 DUP4 PUSH20 0xFFFFFFFFFFFFFFFFFFFFFFFFFFFFFFFFFFFFFFFF AND MUL OR SWAP1 SSTORE POP PUSH1 0x40 MLOAD DUP1 PUSH1 0x40 ADD PUSH1 0x40 MSTORE DUP1 PUSH1 0xC DUP2 MSTORE PUSH1 0x20 ADD PUSH32 0x4C6F616E20437265617465640000000000000000000000000000000000000000 DUP2 MSTORE POP PUSH1 0x1 PUSH1 0x0 DUP1 SLOAD DUP2 MSTORE PUSH1 0x20 ADD SWAP1 DUP2 MSTORE PUSH1 0x20 ADD PUSH1 0x0 KECCAK256 PUSH1 0x7 ADD SWAP1 DUP1 MLOAD SWAP1 PUSH1 0x20 ADD SWAP1 PUSH2 0x7D1 SWAP3 SWAP2 SWAP1 PUSH2 0xBB9 JUMP JUMPDEST POP DUP5 PUSH20 0xFFFFFFFFFFFFFFFFFFFFFFFFFFFFFFFFFFFFFFFF AND PUSH4 0x23B872DD CALLER ADDRESS DUP8 PUSH1 0x40 MLOAD DUP5 PUSH4 0xFFFFFFFF AND PUSH1 0xE0 SHL DUP2 MSTORE PUSH1 0x4 ADD PUSH2 0x80F SWAP4 SWAP3 SWAP2 SWAP1 PUSH2 0xECC JUMP JUMPDEST PUSH1 0x20 PUSH1 0x40 MLOAD DUP1 DUP4 SUB DUP2 PUSH1 0x0 DUP8 DUP1 EXTCODESIZE ISZERO DUP1 ISZERO PUSH2 0x829 JUMPI PUSH1 0x0 DUP1 REVERT JUMPDEST POP GAS CALL ISZERO DUP1 ISZERO PUSH2 0x83D JUMPI RETURNDATASIZE PUSH1 0x0 DUP1 RETURNDATACOPY RETURNDATASIZE PUSH1 0x0 REVERT JUMPDEST POP POP POP POP PUSH1 0x40 MLOAD RETURNDATASIZE PUSH1 0x1F NOT PUSH1 0x1F DUP3 ADD AND DUP3 ADD DUP1 PUSH1 0x40 MSTORE POP DUP2 ADD SWAP1 PUSH2 0x861 SWAP2 SWAP1 PUSH2 0xD12 JUMP JUMPDEST POP POP POP POP POP POP JUMP JUMPDEST PUSH1 0x1 PUSH1 0x20 MSTORE DUP1 PUSH1 0x0 MSTORE PUSH1 0x40 PUSH1 0x0 KECCAK256 PUSH1 0x0 SWAP2 POP SWAP1 POP DUP1 PUSH1 0x0 ADD PUSH1 0x0 SWAP1 SLOAD SWAP1 PUSH2 0x100 EXP SWAP1 DIV PUSH20 0xFFFFFFFFFFFFFFFFFFFFFFFFFFFFFFFFFFFFFFFF AND SWAP1 DUP1 PUSH1 0x1 ADD PUSH1 0x0 SWAP1 SLOAD SWAP1 PUSH2 0x100 EXP SWAP1 DIV PUSH20 0xFFFFFFFFFFFFFFFFFFFFFFFFFFFFFFFFFFFFFFFF AND SWAP1 DUP1 PUSH1 0x2 ADD PUSH1 0x0 SWAP1 SLOAD SWAP1 PUSH2 0x100 EXP SWAP1 DIV PUSH20 0xFFFFFFFFFFFFFFFFFFFFFFFFFFFFFFFFFFFFFFFF AND SWAP1 DUP1 PUSH1 0x3 ADD SLOAD SWAP1 DUP1 PUSH1 0x4 ADD SLOAD SWAP1 DUP1 PUSH1 0x5 ADD SLOAD SWAP1 DUP1 PUSH1 0x6 ADD SLOAD SWAP1 DUP1 PUSH1 0x7 ADD DUP1 SLOAD PUSH2 0x916 SWAP1 PUSH2 0x10B4 JUMP JUMPDEST DUP1 PUSH1 0x1F ADD PUSH1 0x20 DUP1 SWAP2 DIV MUL PUSH1 0x20 ADD PUSH1 0x40 MLOAD SWAP1 DUP2 ADD PUSH1 0x40 MSTORE DUP1 SWAP3 SWAP2 SWAP1 DUP2 DUP2 MSTORE PUSH1 0x20 ADD DUP3 DUP1 SLOAD PUSH2 0x942 SWAP1 PUSH2 0x10B4 JUMP JUMPDEST DUP1 ISZERO PUSH2 0x98F JUMPI DUP1 PUSH1 0x1F LT PUSH2 0x964 JUMPI PUSH2 0x100 DUP1 DUP4 SLOAD DIV MUL DUP4 MSTORE SWAP2 PUSH1 0x20 ADD SWAP2 PUSH2 0x98F JUMP JUMPDEST DUP3 ADD SWAP2 SWAP1 PUSH1 0x0 MSTORE PUSH1 0x20 PUSH1 0x0 KECCAK256 SWAP1 JUMPDEST DUP2 SLOAD DUP2 MSTORE SWAP1 PUSH1 0x1 ADD SWAP1 PUSH1 0x20 ADD DUP1 DUP4 GT PUSH2 0x972 JUMPI DUP3 SWAP1 SUB PUSH1 0x1F AND DUP3 ADD SWAP2 JUMPDEST POP POP POP POP POP SWAP1 POP DUP9 JUMP JUMPDEST PUSH1 0x1 PUSH1 0x0 DUP3 DUP2 MSTORE PUSH1 0x20 ADD SWAP1 DUP2 MSTORE PUSH1 0x20 ADD PUSH1 0x0 KECCAK256 PUSH1 0x5 ADD SLOAD CALLVALUE EQ PUSH2 0x9F1 JUMPI PUSH1 0x40 MLOAD PUSH32 0x8C379A000000000000000000000000000000000000000000000000000000000 DUP2 MSTORE PUSH1 0x4 ADD PUSH2 0x9E8 SWAP1 PUSH2 0xF4C JUMP JUMPDEST PUSH1 0x40 MLOAD DUP1 SWAP2 SUB SWAP1 REVERT JUMPDEST CALLER PUSH1 0x1 PUSH1 0x0 DUP4 DUP2 MSTORE PUSH1 0x20 ADD SWAP1 DUP2 MSTORE PUSH1 0x20 ADD PUSH1 0x0 KECCAK256 PUSH1 0x2 ADD PUSH1 0x0 PUSH2 0x100 EXP DUP2 SLOAD DUP2 PUSH20 0xFFFFFFFFFFFFFFFFFFFFFFFFFFFFFFFFFFFFFFFF MUL NOT AND SWAP1 DUP4 PUSH20 0xFFFFFFFFFFFFFFFFFFFFFFFFFFFFFFFFFFFFFFFF AND MUL OR SWAP1 SSTORE POP PUSH1 0x1 PUSH1 0x0 DUP3 DUP2 MSTORE PUSH1 0x20 ADD SWAP1 DUP2 MSTORE PUSH1 0x20 ADD PUSH1 0x0 KECCAK256 PUSH1 0x0 ADD PUSH1 0x0 SWAP1 SLOAD SWAP1 PUSH2 0x100 EXP SWAP1 DIV PUSH20 0xFFFFFFFFFFFFFFFFFFFFFFFFFFFFFFFFFFFFFFFF AND PUSH20 0xFFFFFFFFFFFFFFFFFFFFFFFFFFFFFFFFFFFFFFFF AND PUSH4 0xA9059CBB PUSH1 0x1 PUSH1 0x0 DUP5 DUP2 MSTORE PUSH1 0x20 ADD SWAP1 DUP2 MSTORE PUSH1 0x20 ADD PUSH1 0x0 KECCAK256 PUSH1 0x2 ADD PUSH1 0x0 SWAP1 SLOAD SWAP1 PUSH2 0x100 EXP SWAP1 DIV PUSH20 0xFFFFFFFFFFFFFFFFFFFFFFFFFFFFFFFFFFFFFFFF AND PUSH1 0x1 PUSH1 0x0 DUP6 DUP2 MSTORE PUSH1 0x20 ADD SWAP1 DUP2 MSTORE PUSH1 0x20 ADD PUSH1 0x0 KECCAK256 PUSH1 0x3 ADD SLOAD PUSH1 0x40 MLOAD DUP4 PUSH4 0xFFFFFFFF AND PUSH1 0xE0 SHL DUP2 MSTORE PUSH1 0x4 ADD PUSH2 0xB03 SWAP3 SWAP2 SWAP1 PUSH2 0xF03 JUMP JUMPDEST PUSH1 0x20 PUSH1 0x40 MLOAD DUP1 DUP4 SUB DUP2 PUSH1 0x0 DUP8 DUP1 EXTCODESIZE ISZERO DUP1 ISZERO PUSH2 0xB1D JUMPI PUSH1 0x0 DUP1 REVERT JUMPDEST POP GAS CALL ISZERO DUP1 ISZERO PUSH2 0xB31 JUMPI RETURNDATASIZE PUSH1 0x0 DUP1 RETURNDATACOPY RETURNDATASIZE PUSH1 0x0 REVERT JUMPDEST POP POP POP POP PUSH1 0x40 MLOAD RETURNDATASIZE PUSH1 0x1F NOT PUSH1 0x1F DUP3 ADD AND DUP3 ADD DUP1 PUSH1 0x40 MSTORE POP DUP2 ADD SWAP1 PUSH2 0xB55 SWAP2 SWAP1 PUSH2 0xD12 JUMP JUMPDEST POP PUSH1 0x40 MLOAD DUP1 PUSH1 0x40 ADD PUSH1 0x40 MSTORE DUP1 PUSH1 0xD DUP2 MSTORE PUSH1 0x20 ADD PUSH32 0x4C6F616E20426F72726F77656400000000000000000000000000000000000000 DUP2 MSTORE POP PUSH1 0x1 PUSH1 0x0 DUP4 DUP2 MSTORE PUSH1 0x20 ADD SWAP1 DUP2 MSTORE PUSH1 0x20 ADD PUSH1 0x0 KECCAK256 PUSH1 0x7 ADD SWAP1 DUP1 MLOAD SWAP1 PUSH1 0x20 ADD SWAP1 PUSH2 0xBB5 SWAP3 SWAP2 SWAP1 PUSH2 0xBB9 JUMP JUMPDEST POP POP JUMP JUMPDEST DUP3 DUP1 SLOAD PUSH2 0xBC5 SWAP1 PUSH2 0x10B4 JUMP JUMPDEST SWAP1 PUSH1 0x0 MSTORE PUSH1 0x20 PUSH1 0x0 KECCAK256 SWAP1 PUSH1 0x1F ADD PUSH1 0x20 SWAP1 DIV DUP2 ADD SWAP3 DUP3 PUSH2 0xBE7 JUMPI PUSH1 0x0 DUP6 SSTORE PUSH2 0xC2E JUMP JUMPDEST DUP3 PUSH1 0x1F LT PUSH2 0xC00 JUMPI DUP1 MLOAD PUSH1 0xFF NOT AND DUP4 DUP1 ADD OR DUP6 SSTORE PUSH2 0xC2E JUMP JUMPDEST DUP3 DUP1 ADD PUSH1 0x1 ADD DUP6 SSTORE DUP3 ISZERO PUSH2 0xC2E JUMPI SWAP2 DUP3 ADD JUMPDEST DUP3 DUP2 GT ISZERO PUSH2 0xC2D JUMPI DUP3 MLOAD DUP3 SSTORE SWAP2 PUSH1 0x20 ADD SWAP2 SWAP1 PUSH1 0x1 ADD SWAP1 PUSH2 0xC12 JUMP JUMPDEST JUMPDEST POP SWAP1 POP PUSH2 0xC3B SWAP2 SWAP1 PUSH2 0xC3F JUMP JUMPDEST POP SWAP1 JUMP JUMPDEST JUMPDEST DUP1 DUP3 GT ISZERO PUSH2 0xC58 JUMPI PUSH1 0x0 DUP2 PUSH1 0x0 SWAP1 SSTORE POP PUSH1 0x1 ADD PUSH2 0xC40 JUMP JUMPDEST POP SWAP1 JUMP JUMPDEST PUSH1 0x0 DUP2 CALLDATALOAD SWAP1 POP PUSH2 0xC6B DUP2 PUSH2 0x12B4 JUMP JUMPDEST SWAP3 SWAP2 POP POP JUMP JUMPDEST PUSH1 0x0 DUP2 MLOAD SWAP1 POP PUSH2 0xC80 DUP2 PUSH2 0x12CB JUMP JUMPDEST SWAP3 SWAP2 POP POP JUMP JUMPDEST PUSH1 0x0 DUP2 CALLDATALOAD SWAP1 POP PUSH2 0xC95 DUP2 PUSH2 0x12E2 JUMP JUMPDEST SWAP3 SWAP2 POP POP JUMP JUMPDEST PUSH1 0x0 DUP1 PUSH1 0x0 DUP1 PUSH1 0x0 PUSH1 0xA0 DUP7 DUP9 SUB SLT ISZERO PUSH2 0xCB3 JUMPI PUSH1 0x0 DUP1 REVERT JUMPDEST PUSH1 0x0 PUSH2 0xCC1 DUP9 DUP3 DUP10 ADD PUSH2 0xC5C JUMP JUMPDEST SWAP6 POP POP PUSH1 0x20 PUSH2 0xCD2 DUP9 DUP3 DUP10 ADD PUSH2 0xC86 JUMP JUMPDEST SWAP5 POP POP PUSH1 0x40 PUSH2 0xCE3 DUP9 DUP3 DUP10 ADD PUSH2 0xC86 JUMP JUMPDEST SWAP4 POP POP PUSH1 0x60 PUSH2 0xCF4 DUP9 DUP3 DUP10 ADD PUSH2 0xC86 JUMP JUMPDEST SWAP3 POP POP PUSH1 0x80 PUSH2 0xD05 DUP9 DUP3 DUP10 ADD PUSH2 0xC86 JUMP JUMPDEST SWAP2 POP POP SWAP3 SWAP6 POP SWAP3 SWAP6 SWAP1 SWAP4 POP JUMP JUMPDEST PUSH1 0x0 PUSH1 0x20 DUP3 DUP5 SUB SLT ISZERO PUSH2 0xD24 JUMPI PUSH1 0x0 DUP1 REVERT JUMPDEST PUSH1 0x0 PUSH2 0xD32 DUP5 DUP3 DUP6 ADD PUSH2 0xC71 JUMP JUMPDEST SWAP2 POP POP SWAP3 SWAP2 POP POP JUMP JUMPDEST PUSH1 0x0 PUSH1 0x20 DUP3 DUP5 SUB SLT ISZERO PUSH2 0xD4D JUMPI PUSH1 0x0 DUP1 REVERT JUMPDEST PUSH1 0x0 PUSH2 0xD5B DUP5 DUP3 DUP6 ADD PUSH2 0xC86 JUMP JUMPDEST SWAP2 POP POP SWAP3 SWAP2 POP POP JUMP JUMPDEST PUSH2 0xD6D DUP2 PUSH2 0x1039 JUMP JUMPDEST DUP3 MSTORE POP POP JUMP JUMPDEST PUSH1 0x0 PUSH2 0xD7E DUP3 PUSH2 0xFC7 JUMP JUMPDEST PUSH2 0xD88 DUP2 DUP6 PUSH2 0xFD2 JUMP JUMPDEST SWAP4 POP PUSH2 0xD98 DUP2 DUP6 PUSH1 0x20 DUP7 ADD PUSH2 0x1081 JUMP JUMPDEST PUSH2 0xDA1 DUP2 PUSH2 0x118D JUMP JUMPDEST DUP5 ADD SWAP2 POP POP SWAP3 SWAP2 POP POP JUMP JUMPDEST PUSH1 0x0 PUSH2 0xDB9 PUSH1 0x24 DUP4 PUSH2 0xFD2 JUMP JUMPDEST SWAP2 POP PUSH2 0xDC4 DUP3 PUSH2 0x119E JUMP JUMPDEST PUSH1 0x40 DUP3 ADD SWAP1 POP SWAP2 SWAP1 POP JUMP JUMPDEST PUSH1 0x0 PUSH2 0xDDC PUSH1 0x19 DUP4 PUSH2 0xFD2 JUMP JUMPDEST SWAP2 POP PUSH2 0xDE7 DUP3 PUSH2 0x11ED JUMP JUMPDEST PUSH1 0x20 DUP3 ADD SWAP1 POP SWAP2 SWAP1 POP JUMP JUMPDEST PUSH1 0x0 PUSH2 0xDFF PUSH1 0x26 DUP4 PUSH2 0xFD2 JUMP JUMPDEST SWAP2 POP PUSH2 0xE0A DUP3 PUSH2 0x1216 JUMP JUMPDEST PUSH1 0x40 DUP3 ADD SWAP1 POP SWAP2 SWAP1 POP JUMP JUMPDEST PUSH1 0x0 PUSH2 0xE22 PUSH1 0x28 DUP4 PUSH2 0xFD2 JUMP JUMPDEST SWAP2 POP PUSH2 0xE2D DUP3 PUSH2 0x1265 JUMP JUMPDEST PUSH1 0x40 DUP3 ADD SWAP1 POP SWAP2 SWAP1 POP JUMP JUMPDEST PUSH2 0xE41 DUP2 PUSH2 0x1077 JUMP JUMPDEST DUP3 MSTORE POP POP JUMP JUMPDEST PUSH1 0x0 PUSH2 0x100 DUP3 ADD SWAP1 POP PUSH2 0xE5D PUSH1 0x0 DUP4 ADD DUP12 PUSH2 0xD64 JUMP JUMPDEST PUSH2 0xE6A PUSH1 0x20 DUP4 ADD DUP11 PUSH2 0xD64 JUMP JUMPDEST PUSH2 0xE77 PUSH1 0x40 DUP4 ADD DUP10 PUSH2 0xD64 JUMP JUMPDEST PUSH2 0xE84 PUSH1 0x60 DUP4 ADD DUP9 PUSH2 0xE38 JUMP JUMPDEST PUSH2 0xE91 PUSH1 0x80 DUP4 ADD DUP8 PUSH2 0xE38 JUMP JUMPDEST PUSH2 0xE9E PUSH1 0xA0 DUP4 ADD DUP7 PUSH2 0xE38 JUMP JUMPDEST PUSH2 0xEAB PUSH1 0xC0 DUP4 ADD DUP6 PUSH2 0xE38 JUMP JUMPDEST DUP2 DUP2 SUB PUSH1 0xE0 DUP4 ADD MSTORE PUSH2 0xEBD DUP2 DUP5 PUSH2 0xD73 JUMP JUMPDEST SWAP1 POP SWAP10 SWAP9 POP POP POP POP POP POP POP POP POP JUMP JUMPDEST PUSH1 0x0 PUSH1 0x60 DUP3 ADD SWAP1 POP PUSH2 0xEE1 PUSH1 0x0 DUP4 ADD DUP7 PUSH2 0xD64 JUMP JUMPDEST PUSH2 0xEEE PUSH1 0x20 DUP4 ADD DUP6 PUSH2 0xD64 JUMP JUMPDEST PUSH2 0xEFB PUSH1 0x40 DUP4 ADD DUP5 PUSH2 0xE38 JUMP JUMPDEST SWAP5 SWAP4 POP POP POP POP JUMP JUMPDEST PUSH1 0x0 PUSH1 0x40 DUP3 ADD SWAP1 POP PUSH2 0xF18 PUSH1 0x0 DUP4 ADD DUP6 PUSH2 0xD64 JUMP JUMPDEST PUSH2 0xF25 PUSH1 0x20 DUP4 ADD DUP5 PUSH2 0xE38 JUMP JUMPDEST SWAP4 SWAP3 POP POP POP JUMP JUMPDEST PUSH1 0x0 PUSH1 0x20 DUP3 ADD SWAP1 POP DUP2 DUP2 SUB PUSH1 0x0 DUP4 ADD MSTORE PUSH2 0xF45 DUP2 PUSH2 0xDAC JUMP JUMPDEST SWAP1 POP SWAP2 SWAP1 POP JUMP JUMPDEST PUSH1 0x0 PUSH1 0x20 DUP3 ADD SWAP1 POP DUP2 DUP2 SUB PUSH1 0x0 DUP4 ADD MSTORE PUSH2 0xF65 DUP2 PUSH2 0xDCF JUMP JUMPDEST SWAP1 POP SWAP2 SWAP1 POP JUMP JUMPDEST PUSH1 0x0 PUSH1 0x20 DUP3 ADD SWAP1 POP DUP2 DUP2 SUB PUSH1 0x0 DUP4 ADD MSTORE PUSH2 0xF85 DUP2 PUSH2 0xDF2 JUMP JUMPDEST SWAP1 POP SWAP2 SWAP1 POP JUMP JUMPDEST PUSH1 0x0 PUSH1 0x20 DUP3 ADD SWAP1 POP DUP2 DUP2 SUB PUSH1 0x0 DUP4 ADD MSTORE PUSH2 0xFA5 DUP2 PUSH2 0xE15 JUMP JUMPDEST SWAP1 POP SWAP2 SWAP1 POP JUMP JUMPDEST PUSH1 0x0 PUSH1 0x20 DUP3 ADD SWAP1 POP PUSH2 0xFC1 PUSH1 0x0 DUP4 ADD DUP5 PUSH2 0xE38 JUMP JUMPDEST SWAP3 SWAP2 POP POP JUMP JUMPDEST PUSH1 0x0 DUP2 MLOAD SWAP1 POP SWAP2 SWAP1 POP JUMP JUMPDEST PUSH1 0x0 DUP3 DUP3 MSTORE PUSH1 0x20 DUP3 ADD SWAP1 POP SWAP3 SWAP2 POP POP JUMP JUMPDEST PUSH1 0x0 PUSH2 0xFEE DUP3 PUSH2 0x1077 JUMP JUMPDEST SWAP2 POP PUSH2 0xFF9 DUP4 PUSH2 0x1077 JUMP JUMPDEST SWAP3 POP DUP3 PUSH32 0xFFFFFFFFFFFFFFFFFFFFFFFFFFFFFFFFFFFFFFFFFFFFFFFFFFFFFFFFFFFFFFFF SUB DUP3 GT ISZERO PUSH2 0x102E JUMPI PUSH2 0x102D PUSH2 0x112F JUMP JUMPDEST JUMPDEST DUP3 DUP3 ADD SWAP1 POP SWAP3 SWAP2 POP POP JUMP JUMPDEST PUSH1 0x0 PUSH2 0x1044 DUP3 PUSH2 0x1057 JUMP JUMPDEST SWAP1 POP SWAP2 SWAP1 POP JUMP JUMPDEST PUSH1 0x0 DUP2 ISZERO ISZERO SWAP1 POP SWAP2 SWAP1 POP JUMP JUMPDEST PUSH1 0x0 PUSH20 0xFFFFFFFFFFFFFFFFFFFFFFFFFFFFFFFFFFFFFFFF DUP3 AND SWAP1 POP SWAP2 SWAP1 POP JUMP JUMPDEST PUSH1 0x0 DUP2 SWAP1 POP SWAP2 SWAP1 POP JUMP JUMPDEST PUSH1 0x0 JUMPDEST DUP4 DUP2 LT ISZERO PUSH2 0x109F JUMPI DUP1 DUP3 ADD MLOAD DUP2 DUP5 ADD MSTORE PUSH1 0x20 DUP2 ADD SWAP1 POP PUSH2 0x1084 JUMP JUMPDEST DUP4 DUP2 GT ISZERO PUSH2 0x10AE JUMPI PUSH1 0x0 DUP5 DUP5 ADD MSTORE JUMPDEST POP POP POP POP JUMP JUMPDEST PUSH1 0x0 PUSH1 0x2 DUP3 DIV SWAP1 POP PUSH1 0x1 DUP3 AND DUP1 PUSH2 0x10CC JUMPI PUSH1 0x7F DUP3 AND SWAP2 POP JUMPDEST PUSH1 0x20 DUP3 LT DUP2 EQ ISZERO PUSH2 0x10E0 JUMPI PUSH2 0x10DF PUSH2 0x115E JUMP JUMPDEST JUMPDEST POP SWAP2 SWAP1 POP JUMP JUMPDEST PUSH1 0x0 PUSH2 0x10F1 DUP3 PUSH2 0x1077 JUMP JUMPDEST SWAP2 POP PUSH32 0xFFFFFFFFFFFFFFFFFFFFFFFFFFFFFFFFFFFFFFFFFFFFFFFFFFFFFFFFFFFFFFFF DUP3 EQ ISZERO PUSH2 0x1124 JUMPI PUSH2 0x1123 PUSH2 0x112F JUMP JUMPDEST JUMPDEST PUSH1 0x1 DUP3 ADD SWAP1 POP SWAP2 SWAP1 POP JUMP JUMPDEST PUSH32 0x4E487B7100000000000000000000000000000000000000000000000000000000 PUSH1 0x0 MSTORE PUSH1 0x11 PUSH1 0x4 MSTORE PUSH1 0x24 PUSH1 0x0 REVERT JUMPDEST PUSH32 0x4E487B7100000000000000000000000000000000000000000000000000000000 PUSH1 0x0 MSTORE PUSH1 0x22 PUSH1 0x4 MSTORE PUSH1 0x24 PUSH1 0x0 REVERT JUMPDEST PUSH1 0x0 PUSH1 0x1F NOT PUSH1 0x1F DUP4 ADD AND SWAP1 POP SWAP2 SWAP1 POP JUMP JUMPDEST PUSH32 0x4F6E6C792074686520626F72726F7765722063616E2072657061792074686520 PUSH1 0x0 DUP3 ADD MSTORE PUSH32 0x6C6F616E00000000000000000000000000000000000000000000000000000000 PUSH1 0x20 DUP3 ADD MSTORE POP JUMP JUMPDEST PUSH32 0x496E76616C696420436F6C6C61746572616C20416D6F756E7400000000000000 PUSH1 0x0 DUP3 ADD MSTORE POP JUMP JUMPDEST PUSH32 0x4F6E6C7920746865206C656E6465722063616E206C6971756964617465207468 PUSH1 0x0 DUP3 ADD MSTORE PUSH32 0x65206C6F616E0000000000000000000000000000000000000000000000000000 PUSH1 0x20 DUP3 ADD MSTORE POP JUMP JUMPDEST PUSH32 0x43616E206E6F74206C6971756964617465206265666F726520746865206C6F61 PUSH1 0x0 DUP3 ADD MSTORE PUSH32 0x6E20697320647565000000000000000000000000000000000000000000000000 PUSH1 0x20 DUP3 ADD MSTORE POP JUMP JUMPDEST PUSH2 0x12BD DUP2 PUSH2 0x1039 JUMP JUMPDEST DUP2 EQ PUSH2 0x12C8 JUMPI PUSH1 0x0 DUP1 REVERT JUMPDEST POP JUMP JUMPDEST PUSH2 0x12D4 DUP2 PUSH2 0x104B JUMP JUMPDEST DUP2 EQ PUSH2 0x12DF JUMPI PUSH1 0x0 DUP1 REVERT JUMPDEST POP JUMP JUMPDEST PUSH2 0x12EB DUP2 PUSH2 0x1077 JUMP JUMPDEST DUP2 EQ PUSH2 0x12F6 JUMPI PUSH1 0x0 DUP1 REVERT JUMPDEST POP JUMP INVALID LOG2 PUSH5 0x6970667358 0x22 SLT KECCAK256 0xC ORIGIN STOP PUSH21 0x53BC94D238D4661CB1FAD584C9A60BAEE93E0AA1DC DUP9 0xA8 PUSH9 0xB1A3E7BC64736F6C63 NUMBER STOP ADDMOD SUB STOP CALLER "
        },
        "methodIdentifiers": {
          "Loans(uint256)": "89b279e7",
          "getTimestamp()": "188ec356",
          "initiateLoan(address,uint256,uint256,uint256,uint256)": "56bebc7e",
          "liquidate(uint256)": "415f1240",
          "numOfLoans()": "43362da3",
          "repay(uint256)": "371fd8e6",
          "takeLoan(uint256)": "8c803fc2"
        }
      }
    }
  }
}