{
  "_format": "hh-sol-artifact-1",
  "contractName": "YouDefi",
  "sourceName": "contracts/YouDefi.sol",
  "abi": [
    {
      "inputs": [
        {
          "internalType": "uint256",
          "name": "",
          "type": "uint256"
        }
      ],
      "name": "Loans",
      "outputs": [
        {
          "internalType": "address",
          "name": "tokenAddress",
          "type": "address"
        },
        {
          "internalType": "address",
          "name": "lender",
          "type": "address"
        },
        {
          "internalType": "address",
          "name": "borrower",
          "type": "address"
        },
        {
          "internalType": "uint256",
          "name": "loanAmount",
          "type": "uint256"
        },
        {
          "internalType": "uint256",
          "name": "feeAmount",
          "type": "uint256"
        },
        {
          "internalType": "uint256",
          "name": "ethCollateralAmount",
          "type": "uint256"
        },
        {
          "internalType": "uint256",
          "name": "repayByTimestamp",
          "type": "uint256"
        },
        {
          "internalType": "string",
          "name": "status",
          "type": "string"
        }
      ],
      "stateMutability": "view",
      "type": "function"
    },
    {
      "inputs": [],
      "name": "getTimestamp",
      "outputs": [
        {
          "internalType": "uint256",
          "name": "",
          "type": "uint256"
        }
      ],
      "stateMutability": "view",
      "type": "function"
    },
    {
      "inputs": [
        {
          "internalType": "address",
          "name": "_tokenAddress",
          "type": "address"
        },
        {
          "internalType": "uint256",
          "name": "_loanAmt",
          "type": "uint256"
        },
        {
          "internalType": "uint256",
          "name": "_fee",
          "type": "uint256"
        },
        {
          "internalType": "uint256",
          "name": "_collateral",
          "type": "uint256"
        },
        {
          "internalType": "uint256",
          "name": "_timestamp",
          "type": "uint256"
        }
      ],
      "name": "initiateLoan",
      "outputs": [],
      "stateMutability": "nonpayable",
      "type": "function"
    },
    {
      "inputs": [
        {
          "internalType": "uint256",
          "name": "_LoanID",
          "type": "uint256"
        }
      ],
      "name": "liquidate",
      "outputs": [],
      "stateMutability": "nonpayable",
      "type": "function"
    },
    {
      "inputs": [],
      "name": "numOfLoans",
      "outputs": [
        {
          "internalType": "uint256",
          "name": "",
          "type": "uint256"
        }
      ],
      "stateMutability": "view",
      "type": "function"
    },
    {
      "inputs": [
        {
          "internalType": "uint256",
          "name": "_LoanID",
          "type": "uint256"
        }
      ],
      "name": "repay",
      "outputs": [],
      "stateMutability": "nonpayable",
      "type": "function"
    },
    {
      "inputs": [
        {
          "internalType": "uint256",
          "name": "_LoanID",
          "type": "uint256"
        }
      ],
      "name": "takeLoan",
      "outputs": [],
      "stateMutability": "payable",
      "type": "function"
    }
  ],
  "bytecode": "0x60806040526000805534801561001457600080fd5b5061132f806100246000396000f3fe6080604052600436106100705760003560e01c806343362da31161004e57806343362da3146100f257806356bebc7e1461011d57806389b279e7146101465780638c803fc21461018a57610070565b8063188ec35614610075578063371fd8e6146100a0578063415f1240146100c9575b600080fd5b34801561008157600080fd5b5061008a6101a6565b6040516100979190610fac565b60405180910390f35b3480156100ac57600080fd5b506100c760048036038101906100c29190610d3b565b6101ae565b005b3480156100d557600080fd5b506100f060048036038101906100eb9190610d3b565b61047b565b005b3480156100fe57600080fd5b50610107610638565b6040516101149190610fac565b60405180910390f35b34801561012957600080fd5b50610144600480360381019061013f9190610c9b565b61063e565b005b34801561015257600080fd5b5061016d60048036038101906101689190610d3b565b610869565b604051610181989796959493929190610e47565b60405180910390f35b6101a4600480360381019061019f9190610d3b565b610999565b005b600042905090565b6001600082815260200190815260200160002060020160009054906101000a900473ffffffffffffffffffffffffffffffffffffffff1673ffffffffffffffffffffffffffffffffffffffff163373ffffffffffffffffffffffffffffffffffffffff1614610252576040517f08c379a000000000000000000000000000000000000000000000000000000000815260040161024990610f2c565b60405180910390fd5b6001600082815260200190815260200160002060000160009054906101000a900473ffffffffffffffffffffffffffffffffffffffff1673ffffffffffffffffffffffffffffffffffffffff166323b872dd6001600084815260200190815260200160002060020160009054906101000a900473ffffffffffffffffffffffffffffffffffffffff166001600085815260200190815260200160002060010160009054906101000a900473ffffffffffffffffffffffffffffffffffffffff166001600086815260200190815260200160002060040154600160008781526020019081526020016000206003015461034a9190610fe3565b6040518463ffffffff1660e01b815260040161036893929190610ecc565b602060405180830381600087803b15801561038257600080fd5b505af1158015610396573d6000803e3d6000fd5b505050506040513d601f19601f820116820180604052508101906103ba9190610d12565b503373ffffffffffffffffffffffffffffffffffffffff166108fc60016000848152602001908152602001600020600501549081150290604051600060405180830381858888f19350505050158015610417573d6000803e3d6000fd5b506040518060400160405280600b81526020017f4c6f616e20526570616964000000000000000000000000000000000000000000815250600160008381526020019081526020016000206007019080519060200190610477929190610bb9565b5050565b6001600082815260200190815260200160002060010160009054906101000a900473ffffffffffffffffffffffffffffffffffffffff1673ffffffffffffffffffffffffffffffffffffffff163373ffffffffffffffffffffffffffffffffffffffff161461051f576040517f08c379a000000000000000000000000000000000000000000000000000000000815260040161051690610f6c565b60405180910390fd5b6001600082815260200190815260200160002060060154421015610578576040517f08c379a000000000000000000000000000000000000000000000000000000000815260040161056f90610f8c565b60405180910390fd5b3373ffffffffffffffffffffffffffffffffffffffff166108fc60016000848152602001908152602001600020600501549081150290604051600060405180830381858888f193505050501580156105d4573d6000803e3d6000fd5b506040518060400160405280600e81526020017f4c6f616e2044656661756c746564000000000000000000000000000000000000815250600160008381526020019081526020016000206007019080519060200190610634929190610bb9565b5050565b60005481565b600080815480929190610650906110e6565b919050555033600160008054815260200190815260200160002060010160006101000a81548173ffffffffffffffffffffffffffffffffffffffff021916908373ffffffffffffffffffffffffffffffffffffffff1602179055508360016000805481526020019081526020016000206003018190555082600160008054815260200190815260200160002060040181905550816001600080548152602001908152602001600020600501819055508060016000805481526020019081526020016000206006018190555084600160008054815260200190815260200160002060000160006101000a81548173ffffffffffffffffffffffffffffffffffffffff021916908373ffffffffffffffffffffffffffffffffffffffff1602179055506040518060400160405280600c81526020017f4c6f616e20437265617465640000000000000000000000000000000000000000815250600160008054815260200190815260200160002060070190805190602001906107d1929190610bb9565b508473ffffffffffffffffffffffffffffffffffffffff166323b872dd3330876040518463ffffffff1660e01b815260040161080f93929190610ecc565b602060405180830381600087803b15801561082957600080fd5b505af115801561083d573d6000803e3d6000fd5b505050506040513d601f19601f820116820180604052508101906108619190610d12565b505050505050565b60016020528060005260406000206000915090508060000160009054906101000a900473ffffffffffffffffffffffffffffffffffffffff16908060010160009054906101000a900473ffffffffffffffffffffffffffffffffffffffff16908060020160009054906101000a900473ffffffffffffffffffffffffffffffffffffffff1690806003015490806004015490806005015490806006015490806007018054610916906110b4565b80601f0160208091040260200160405190810160405280929190818152602001828054610942906110b4565b801561098f5780601f106109645761010080835404028352916020019161098f565b820191906000526020600020905b81548152906001019060200180831161097257829003601f168201915b5050505050905088565b600160008281526020019081526020016000206005015434146109f1576040517f08c379a00000000000000000000000000000000000000000000000000000000081526004016109e890610f4c565b60405180910390fd5b336001600083815260200190815260200160002060020160006101000a81548173ffffffffffffffffffffffffffffffffffffffff021916908373ffffffffffffffffffffffffffffffffffffffff1602179055506001600082815260200190815260200160002060000160009054906101000a900473ffffffffffffffffffffffffffffffffffffffff1673ffffffffffffffffffffffffffffffffffffffff1663a9059cbb6001600084815260200190815260200160002060020160009054906101000a900473ffffffffffffffffffffffffffffffffffffffff1660016000858152602001908152602001600020600301546040518363ffffffff1660e01b8152600401610b03929190610f03565b602060405180830381600087803b158015610b1d57600080fd5b505af1158015610b31573d6000803e3d6000fd5b505050506040513d601f19601f82011682018060405250810190610b559190610d12565b506040518060400160405280600d81526020017f4c6f616e20426f72726f77656400000000000000000000000000000000000000815250600160008381526020019081526020016000206007019080519060200190610bb5929190610bb9565b5050565b828054610bc5906110b4565b90600052602060002090601f016020900481019282610be75760008555610c2e565b82601f10610c0057805160ff1916838001178555610c2e565b82800160010185558215610c2e579182015b82811115610c2d578251825591602001919060010190610c12565b5b509050610c3b9190610c3f565b5090565b5b80821115610c58576000816000905550600101610c40565b5090565b600081359050610c6b816112b4565b92915050565b600081519050610c80816112cb565b92915050565b600081359050610c95816112e2565b92915050565b600080600080600060a08688031215610cb357600080fd5b6000610cc188828901610c5c565b9550506020610cd288828901610c86565b9450506040610ce388828901610c86565b9350506060610cf488828901610c86565b9250506080610d0588828901610c86565b9150509295509295909350565b600060208284031215610d2457600080fd5b6000610d3284828501610c71565b91505092915050565b600060208284031215610d4d57600080fd5b6000610d5b84828501610c86565b91505092915050565b610d6d81611039565b82525050565b6000610d7e82610fc7565b610d888185610fd2565b9350610d98818560208601611081565b610da18161118d565b840191505092915050565b6000610db9602483610fd2565b9150610dc48261119e565b604082019050919050565b6000610ddc601983610fd2565b9150610de7826111ed565b602082019050919050565b6000610dff602683610fd2565b9150610e0a82611216565b604082019050919050565b6000610e22602883610fd2565b9150610e2d82611265565b604082019050919050565b610e4181611077565b82525050565b600061010082019050610e5d600083018b610d64565b610e6a602083018a610d64565b610e776040830189610d64565b610e846060830188610e38565b610e916080830187610e38565b610e9e60a0830186610e38565b610eab60c0830185610e38565b81810360e0830152610ebd8184610d73565b90509998505050505050505050565b6000606082019050610ee16000830186610d64565b610eee6020830185610d64565b610efb6040830184610e38565b949350505050565b6000604082019050610f186000830185610d64565b610f256020830184610e38565b9392505050565b60006020820190508181036000830152610f4581610dac565b9050919050565b60006020820190508181036000830152610f6581610dcf565b9050919050565b60006020820190508181036000830152610f8581610df2565b9050919050565b60006020820190508181036000830152610fa581610e15565b9050919050565b6000602082019050610fc16000830184610e38565b92915050565b600081519050919050565b600082825260208201905092915050565b6000610fee82611077565b9150610ff983611077565b9250827fffffffffffffffffffffffffffffffffffffffffffffffffffffffffffffffff0382111561102e5761102d61112f565b5b828201905092915050565b600061104482611057565b9050919050565b60008115159050919050565b600073ffffffffffffffffffffffffffffffffffffffff82169050919050565b6000819050919050565b60005b8381101561109f578082015181840152602081019050611084565b838111156110ae576000848401525b50505050565b600060028204905060018216806110cc57607f821691505b602082108114156110e0576110df61115e565b5b50919050565b60006110f182611077565b91507fffffffffffffffffffffffffffffffffffffffffffffffffffffffffffffffff8214156111245761112361112f565b5b600182019050919050565b7f4e487b7100000000000000000000000000000000000000000000000000000000600052601160045260246000fd5b7f4e487b7100000000000000000000000000000000000000000000000000000000600052602260045260246000fd5b6000601f19601f8301169050919050565b7f4f6e6c792074686520626f72726f7765722063616e207265706179207468652060008201527f6c6f616e00000000000000000000000000000000000000000000000000000000602082015250565b7f496e76616c696420436f6c6c61746572616c20416d6f756e7400000000000000600082015250565b7f4f6e6c7920746865206c656e6465722063616e206c697175696461746520746860008201527f65206c6f616e0000000000000000000000000000000000000000000000000000602082015250565b7f43616e206e6f74206c6971756964617465206265666f726520746865206c6f6160008201527f6e20697320647565000000000000000000000000000000000000000000000000602082015250565b6112bd81611039565b81146112c857600080fd5b50565b6112d48161104b565b81146112df57600080fd5b50565b6112eb81611077565b81146112f657600080fd5b5056fea26469706673582212200c32007453bc94d238d4661cb1fad584c9a60baee93e0aa1dc88a868b1a3e7bc64736f6c63430008030033",
  "linkReferences": {},
  "deployedLinkReferences": {}
}